:020000040000FA
:100000000C9463000C948B000C948B000C94CA0B22
:100010000C94CA0B0C94CA0B0C948B000C94A50B7B
:100020000C948B000C948B000C948B000C94E90ABC
:100030000C948B000C948B000C948B000C948B0014
:100040000C9428090C948B000C9498090C94720958
:100050000C948B000C948B000C948B000C948B00F4
:100060000C94CA090C948B000000000800020100E7
:100070000003040700000000000000000000000072
:10008000240027002A000000000023002600290089
:1000900000000000250028002B00040404040404D0
:1000A0000404020202020202030303030303010227
:1000B00004081020408001020408102001020408F6
:1000C0001020420C9D1011241FBECFEFD8E0DEBFE0
:1000D000CDBF12E0A0E0B1E0EEECF8E202C0059086
:1000E0000D92A234B107D9F724E0A2E4B2E001C036
:1000F0001D92A337B207E1F710E0C2E6D0E004C0DA
:100100002197FE010E946212C136D107C9F70E94F1
:10011000890D0C945A140C9400008F929F92AF9208
:10012000BF92FF920F931F93CF93DF93F0906004E1
:100130002BE02F1508F44CC02091620408E512E072
:10014000021B110927FD1395000F111F000F111F2E
:1001500020916104C8E8D0E0C21BD10927FDD395E6
:10016000CC0FDD1FCC0FDD1F4E010D2E000CAA0899
:10017000BB089801012E000C440B550B28193909B6
:100180004A095B09DC010E94E61124EB30E040E003
:1001900050E00E94BC11820E931EA41EB51E8C1648
:1001A0009D062CF0E801801691060CF4E4012297DC
:1001B000CC0FDD1F2FB7F8948F2D90E0FC01EE0FD0
:1001C000FF1FE80FF91FE950FC4FD283C1832FBFF7
:1001D000DF91CF911F910F91FF90BF90AF909F90B3
:1001E0008F90089590E0FC01E859FF4F2491FC01A5
:1001F000E255FF4F3491FC01E656FF4FE491EE23A8
:10020000C9F0222339F0233001F1A8F4213019F18B
:10021000223029F1F0E0EE0FFF1FE057FF4FA591CC
:10022000B4918FB7F894EC91611126C030953E23BC
:100230003C938FBF08952730A9F02830C9F02430AF
:1002400049F7809180008F7D03C0809180008F7777
:1002500080938000DFCF84B58F7784BDDBCF84B5FA
:100260008F7DFBCF8091B0008F778093B000D2CF8D
:100270008091B0008F7DF9CF3E2BDACFCF93DF9303
:1002800090E0FC01E255FF4F249186569F4FFC0100
:1002900084918823D1F090E0880F991FFC01E458E5
:1002A000FF4FA591B491FC01E057FF4FC591D49148
:1002B00061110EC09FB7F8948C91E22FE0958E23C8
:1002C0008C932881E223E8839FBFDF91CF9108952B
:1002D0008FB7F894EC91E22BEC938FBFF6CF3FB73A
:1002E000F8948091460390914703A0914803B09100
:1002F000490326B5A89B05C02F3F19F00196A11D03
:10030000B11D3FBFBA2FA92F982F8827BC01CD015F
:10031000620F711D811D911D42E0660F771F881FBE
:10032000991F4A95D1F708958F929F92AF92BF92ED
:10033000CF92DF92EF92FF924B015C010E946F011E
:100340006B017C010E946F016C197D098E099F0968
:10035000683E734081059105A8F321E0821A910857
:10036000A108B10888EEC80E83E0D81EE11CF11C7C
:1003700081149104A104B10429F7FF90EF90DF905C
:10038000CF90BF90AF909F908F900895089508955B
:100390000895DB0114964D915C9115976D917C91B8
:1003A000DC01ED91FC910280F381E02D0994AF9284
:1003B000BF92CF92DF92EF92FF920F931F93CF9352
:1003C000DF936C017B018B01040F151FEB015E01B4
:1003D000AE18BF08C017D10759F06991D601ED9149
:1003E000FC910190F081E02DC6010995892B79F7E8
:1003F000C501DF91CF911F910F91FF90EF90DF909A
:10040000CF90BF90AF900895FC01538D448D252F60
:1004100030E0842F90E0821B930B541710F0CF969E
:10042000089501970895FC01918D828D981761F0D0
:10043000A28DAE0FBF2FB11D5D968C91928D9F5FE7
:100440009F73928F90E008958FEF9FEF08952FB7DD
:10045000F89480914A0390914B03A0914C03B09182
:100460004D032FBF8093560390935703A0935803D7
:10047000B09359038EE493E00E94130297FF26C0C5
:100480002FB7F89480914A0390914B03A0914C03AD
:10049000B0914D032FBF4091560350915703609187
:1004A000580370915903841B950BA60BB70B409111
:1004B0005203509153036091540370915503841774
:1004C0009507A607B707B0F28FEF9FEF0895FC01DD
:1004D000918D828D981731F0828DE80FF11D858DF9
:1004E00090E008958FEF9FEF0895FC01918D228D8C
:1004F000892F90E0805C9F4F821B91098F73992711
:1005000008958EE493E00E94750221E0892B09F49E
:1005100020E0822F089580E090E0892B29F00E944E
:10052000810281110C9400000895FC01A48DA80F94
:10053000B92FB11DA35ABF4F2C91848D90E0019625
:100540008F739927848FA689B7892C93A089B18945
:100550008C91837080648C93938D848D981306C0E6
:100560000288F389E02D80818F7D80830895EF924A
:10057000FF920F931F93CF93DF93EC0181E0888F5D
:100580009B8D8C8D98131AC0E889F989808185FF2D
:1005900015C09FB7F894EE89FF896083E889F989CF
:1005A00080818370806480839FBF81E090E0DF91D1
:1005B000CF911F910F91FF90EF900895F62E0B8D24
:1005C00010E00F5F1F4F0F731127E02E8C8D8E11DF
:1005D0000CC00FB607FCFACFE889F989808185FF46
:1005E000F5CFCE010E949502F1CFEB8DEC0FFD2FE0
:1005F000F11DE35AFF4FF0829FB7F8940B8FEA8901
:10060000FB8980818062CFCFCF93DF93EC01888D0F
:100610008823B9F0AA89BB89E889F9898C9185FD7D
:1006200003C0808186FD0DC00FB607FCF7CF8C910B
:1006300085FFF2CF808185FFEDCFCE010E9495022C
:10064000E9CFDF91CF9108952091EF02260F332754
:10065000331F21323105ECF420911303FC0190E0AB
:1006600080E0243069F082E00895A091EF022191AA
:10067000AC0141535D4FA40FB52FB11D2C930196D2
:10068000861798F38091EF02680F6093EF0280E085
:10069000089581E008951092130381E0809315037B
:1006A0001092140361E082E10E94F20061E083E1B4
:1006B0000E94F200E9EBF0E080818E7F80838081F0
:1006C0008D7F808388E48093B80085E48093BC00AC
:1006D0000895CF93DF9391E09093CE028823B9F0F1
:1006E000C091B800D091BA008091BC008A7B809301
:1006F000BC0060E082E10E94F20060E083E10E94C1
:10070000F2000E944B03D093BA00C093B800DF916F
:10071000CF9108950895E091400380913F03E81739
:1007200030F4F0E0E755FD4F808190E008958FEFC1
:100730009FEF08959091400380913F032FEF3FEF8B
:10074000981748F4E92FF0E0E755FD4F208130E09D
:100750009F5F90934003C901089580913F0390915A
:100760004003891B990B0895CF92DF92EF92FF927D
:100770000F931F93CF93DF937C01CB018A012091CC
:10078000A802222389F0EB016B01C40ED51ECC1503
:10079000DD0569F06991D701ED91FC910190F0813F
:1007A000E02DC7010995F3CF642F0E942403C801EF
:1007B000DF91CF911F910F91FF90EF90DF90CF903D
:1007C0000895CF93DF931F92CDB7DEB76983209151
:1007D000A8022223F9F020913D03203258F021E0B5
:1007E00030E0FC013383228390E080E00F90DF91C2
:1007F000CF91089580913E03E82FF0E0E857FD4F38
:10080000998190838F5F80933E0380933D0381E0C5
:1008100090E0ECCF61E0CE0101960E942403F7CF77
:10082000CF92DF92EF92FF920F931F93CF93DF93BC
:10083000FC01C48121E02093A802C093870210929A
:100840003E0310923D038385682B8BEE93E00E945C
:10085000E103D0913D03D13208F092C00E946F01B4
:100860006B017C0180911303811165C082E080934C
:10087000130381E0809315038FEF8093120310928E
:100880003703D0933603A8E8B2E0E6E1F3E080E076
:10089000D81385C01092380380913803CC0FC82B31
:1008A000C093380380911403813009F07CC010920A
:1008B00014030E946F016B017C01809138038093C7
:1008C000BB008091CA029091CB02A091CC02B09162
:1008D000CD02892B8A2B8B2B99F00E946F010091FE
:1008E000CA021091CB022091CC023091CD026C193A
:1008F0007D098E099F090617170728073907E0F1B8
:100900008091BC0083FDD9CF85EC8093BC000E9410
:100910006F016B017C0180911303823009F445C0A3
:10092000809112038F3F61F180911203803241F177
:100930008091120325C08091CA029091CB02A091B0
:10094000CC02B091CD02892B8A2B8B2B09F48ACF54
:100950000E946F010091CA021091CB022091CC023B
:100960003091CD026C197D098E099F090617170772
:100970002807390708F076CF8091C9020E946903E1
:1009800010923E0310923D031092A802DF91CF9186
:100990001F910F91FF90EF90DF90CF9008959D9160
:1009A00091938F5F75CF85EEB0CF8091CA02909101
:1009B000CB02A091CC02B091CD02892B8A2B8B2B3C
:1009C00009F4A9CF0E946F010091CA021091CB02D5
:1009D0002091CC023091CD026C197D098E099F09BE
:1009E000061717072807390708F095CFC5CF2091BC
:1009F0004303309144032817390771F49091410360
:100A000080914203981741F0E0914103F0E0EA5BE6
:100A1000FD4F808190E008958FEF9FEF0895EF9252
:100A2000FF920F931F93CF93DF93DC015C96ED90C1
:100A3000FC905D97E114F10479F481E090E0139665
:100A40009C938E93129790E080E0DF91CF911F915D
:100A50000F91FF90EF9008955196ED91FC91529770
:100A600050968C915097982F90950FB75E962C9139
:100A70005E97122F127021FD6095F894208111234A
:100A800019F1282B2083E7012197F1F728E0462F61
:100A900050E0308160FF1AC0382B3083E701219786
:100AA000F1F7BA0175956795215089F7112381F007
:100AB0008081892380830FBF5C968D919C910197E3
:100AC000F1F781E090E0C1CF2923DCCF3923E5CFD6
:100AD0009081892BEFCF2091430330914403281755
:100AE000390761F4809142032091410390E0805CDA
:100AF0009F4F821B91098F739927089590E080E0A2
:100B00000895209143033091440328173907B9F41D
:100B10009091410380914203981789F0E09141033D
:100B2000F0E0EA5BFD4F80812091410330E02F5FD0
:100B30003F4F2F7333272093410390E008958FEFA9
:100B40009FEF089590E080E008950F931F93E09148
:100B50005704F0915804808190915104892B80832F
:100B6000E0915304F0915404808190915104892BB9
:100B700080838BE290E00197F1F7E0915304F091CC
:100B800054049081809151048095892380838091C1
:100B90005F04882351F0E0915704F091580490814C
:100BA00080915104809589238083E0915504F091D0
:100BB0005604808190915204892329F090E080E0CE
:100BC0001F910F9108950E946F01AB01BC018091AC
:100BD000590490915A04B0E0A0E08855994EAF4F67
:100BE000BF4F840F951FA61FB71F80935B04909380
:100BF0005C04A0935D04B0935E04E0915504F09111
:100C00005604808190915204892381F40E946F01DF
:100C100000915B0410915C0420915D0430915E04AE
:100C2000061717072807390740F7C8CF0E946F013A
:100C30002091590430915A04620F731F811D911D38
:100C400060935B0470935C0480935D0490935E04F6
:100C5000E0915504F09156048081909152048923CB
:100C600081F00E946F0100915B0410915C0420915F
:100C70005D0430915E04061717072807390740F70F
:100C80009DCF0E946F012091590430915A04A9010F
:100C90004550510920915B0430915C04FA01E21B3C
:100CA000F30BCF01860F971F8BCF0F931F93CF931B
:100CB0008C01C62F0E9410046C2F6460C8010E9432
:100CC00010046C2F6B7FC8010E94100483EC90E02D
:100CD0000197F1F7CF911F910F9108950F931F93F3
:100CE000CF93DF938C01D62FC42F607F642B0E949B
:100CF000550680E1D89FB00111246C2BC801DF910B
:100D0000CF911F910F910C945506CF93DF93CDB7E0
:100D1000DEB728970FB6F894DEBF0FBECDBF98E0C0
:100D2000EAE0F1E0DE01119601900D929A95E1F76B
:100D300090916B04981708F48FEF90E0880F991F3B
:100D400021E030E02C0F3D1F820F931FFC016081DA
:100D5000606840E083E694E028960FB6F894DEBF22
:100D60000FBECDBFDF91CF910C946E0641E00E9483
:100D70006E0681E090E00895FB0101900020E9F704
:100D80003197AF01461B570BDC01ED91FC910280BE
:100D9000F381E02D099464E571E00C94BC060F9397
:100DA0001F93CF93DF93EC010E94BC068C01CE0110
:100DB0000E94CB06800F911FDF91CF911F910F9161
:100DC00008950F931F93CF93DF93EC01888199814E
:100DD000009759F02A813B812617370730F081E0D0
:100DE000DF91CF911F910F9108958B016F5F7F4F1E
:100DF0000E948D13009759F0998388831B830A837F
:100E00002C813D81232B59F7FC011082E8CF80E033
:100E1000E7CFCF93DF93EC0188819981009711F0A0
:100E20000E940413198218821D821C821B821A825E
:100E3000DF91CF910895EF92FF920F931F93CF937D
:100E4000DF93EC01FB01E080F180E114F10411F18A
:100E50000481158101151105A9F08C819D81080F70
:100E6000191FB801CE010E94E106882399F028815C
:100E700039818C819D81B701820F931F0E94531489
:100E80001D830C83CE01DF91CF911F910F91FF90B5
:100E9000EF900895CE010E940907F4CFEF92FF92E0
:100EA0000F931F93CF93DF93EC017B018A01BA016B
:100EB0000E94E10681110BC0CE010E940907CE01FC
:100EC000DF91CF911F910F91FF90EF9008951D83B7
:100ED0000C83B701888199810E945314F0CFCF937E
:100EE000DF93EC01FB018617970749F06081718160
:100EF0006115710541F0448155810E944E07CE0174
:100F0000DF91CF9108950E940907F9CFFC0111826A
:100F100010821382128215821482FB01019000203C
:100F2000E9F73197AF01461B570B0C944E07FC01B4
:100F300080819181009711F00C940413089585ED40
:100F40008093BC008091CA029091CB02A091CC0208
:100F5000B091CD020796A11DB11D23E0B695A795CE
:100F6000979587952A95D1F72091BC0024FD03C061
:100F70001092130308954091CA025091CB026091E0
:100F8000CC027091CD02452B462B472B69F300977D
:100F9000A105B10541F02AE22A95F1F700C00197B9
:100FA000A109B109E1CF8091C9020C946903EF92C4
:100FB000FF920F931F93CF93DF93CDB7DEB7A39725
:100FC0000FB6F894DEBF0FBECDBF66E571E0CE016F
:100FD0004E960E94860767E571E08EE493E00E94DA
:100FE000BC068EE493E00E94CB066DE671E08EE2D3
:100FF00094E00E94CF068EE493E00E9475028E0179
:101000000F5F1F4F181619060CF042C066E571E01D
:10101000C8010E9486070E94270297FD1BC08A8B89
:101020001B8AED80FE808FEFE81AF80AB701C8012D
:101030000E94E106882379F329813A818D819E817E
:10104000BE016E5E7F4F820F931F0E945314FE827B
:10105000ED82E1CF8E8D9F8D009709F4E6C0698106
:101060007A816115710509F4DEC048A159A12D816D
:101070003E814217530708F4D6C00E9453148D8155
:101080009E819BA38AA31E821D82C8010E9497078E
:101090006CE271E080E090E00E94940166E871E00B
:1010A000C8010E948607BE01625E7F4FC8010E9490
:1010B0001B07BC018EE294E00E94C901C8010E9496
:1010C0009707BE01625E7F4F8CE194E00E946F073C
:1010D00010922404109225041092260410922704E2
:1010E0008EE294E00E94CB06198E188E1B8E1A8E0B
:1010F0001D8E1C8EBE01625E7F4FCE0148960E94FF
:101100006F078C8D9D8D8730910509F49FC01B8AD8
:101110001A8A1D8A1C8A1F8A1E8A4AE0B8010E9408
:101120009211F80101900020E9F73197AF01401BBF
:10113000510BB801CE0142960E944E076EE871E055
:10114000C8010E948607BE016E5E7F4FC8010E94E3
:101150001B07BC018EE294E00E94C901C8010E94F5
:101160009707CE0142960E94970710E0CE0148965D
:101170000E949707111113C0BE01625E7F4F8EE47B
:1011800093E00E94C9018EE294E00E94CB066CE2DB
:1011900071E080E090E00E9494010E94D707BE01B8
:1011A000625E7F4F8CE194E00E946F070E940911FC
:1011B00029E030E040E050E00E94BC116F5F7F4FBB
:1011C0008F4F9F4F70932304609322042FB7F8949E
:1011D00080914A0390914B03A0914C03B0914D0331
:1011E0002FBF8093240490932504A0932604B093EA
:1011F0002704109228041092290410922A041092B5
:101200002B04CE014E960E94970781E0A3960FB65D
:10121000F894DEBF0FBECDBFDF91CF911F910F912C
:10122000FF90EF9008950E94041389819A819F8F07
:101230008E8F8B819C8199A388A38D819E819BA396
:101240008AA31A8219821C821B821DCF11E08ECFC5
:101250001F920F920FB60F9211242F933F938F93EB
:101260009F93AF93BF9380914A0390914B03A091BA
:101270004C03B0914D033091450323E0230F2D37EC
:1012800058F50196A11DB11D2093450380934A0393
:1012900090934B03A0934C03B0934D03809146036E
:1012A00090914703A0914803B09149030196A11D75
:1012B000B11D8093460390934703A0934803B093D6
:1012C0004903BF91AF919F918F913F912F910F90C3
:1012D0000FBE0F901F90189526E8230F0296A11DB0
:1012E000B11DD2CF1F920F920FB60F9211242F93E0
:1012F0003F934F935F936F937F938F939F93AF939E
:10130000BF93EF93FF938EE493E00E949502FF91C9
:10131000EF91BF91AF919F918F917F916F915F916D
:101320004F913F912F910F900FBE0F901F901895E6
:101330001F920F920FB60F9211242F938F939F93AA
:10134000EF93FF93E0915E03F0915F038081E09162
:101350006403F091650382FD1BC090818091670357
:101360008F5F8F7320916803821741F0E0916703CC
:10137000F0E0E25BFC4F958F80936703FF91EF9164
:101380009F918F912F910F900FBE0F901F901895E6
:101390008081F4CF1F920F920FB60F9211242F93DA
:1013A0003F934F935F936F937F938F939F93AF93ED
:1013B000BF93EF93FF938091B900887F803609F443
:1013C0004AC0F0F5883209F4A7C018F5803109F455
:1013D0009BC0B8F4882309F4F9C0883009F494C09C
:1013E000FF91EF91BF91AF919F918F917F916F91FD
:1013F0005F914F913F912F910F900FBE0F901F90D3
:101400001895883109F488C0803251F7809312030F
:1014100014C0803409F49DC040F48033B9F388339C
:10142000F9F68093120385ECB0C0803509F485C0CD
:10143000883509F496C0883499F60E949F07D0CF6A
:10144000883909F48CC038F5883729F050F488368B
:1014500011F0803729F683E0809313031092110373
:1014600057C0883809F47BC0803919F0803809F0FA
:10147000B7CF80911103803208F071C0E091110361
:1014800081E08E0F809311038091BB00F0E0EF505C
:10149000FD4F80833DC0803B39F0E0F4803A09F491
:1014A00079C0883A09F09CCF84E0809313031092AE
:1014B000F0021092EF02E0913B03F0913C0309959A
:1014C0008091EF0281110FC081E08093EF021092B2
:1014D000CF0209C0803C09F4A6CF883C09F4A3CF11
:1014E000883B09F07DCFE091F00281E08E0F809380
:1014F000F002F0E0E153FD4F80818093BB009091BA
:10150000F0028091EF0229C0809138038093BB00E4
:1015100085EC8093BC0064CF9091370380913603B3
:10152000981758F5E091370381E08E0F80933703C9
:10153000F0E0EA5EFC4F8081E9CFE091370381E083
:101540008E0F809337038091BB00F0E0EA5EFC4F82
:10155000808390913703809136039817C8F285E80D
:10156000D8CFE091370381E08E0F809337038091CD
:10157000BB00F0E0EA5EFC4F80838091150381118F
:101580005CCF81E08093140384EA8093BC001092C6
:10159000130326CF85EC8093BC0010921303809137
:1015A0001103803230F4E0911103F0E0EF50FD4F71
:1015B00010826091110370E0E0913903F0913A03D9
:1015C00081EF92E00995109211030ACF1092120355
:1015D00034CF1F920F920FB60F9211242F933F9387
:1015E0004F935F936F937F938F939F93AF93BF932B
:1015F000CF93DF93EF93FF9380918602C0911B04FA
:10160000D0E087FF24C01092850010928400809162
:1016100086028F5F8093860280918602082E000CDE
:10162000990B8C179D0724F4809186028C30C4F1AD
:101630008091840090918500049680349C4908F440
:101640007AC08091840090918500049676C0809144
:101650008602082E000C990B8C179D07C4F6E091AA
:1016600086028E2FEE0F990BFC01EE0FFF1FE80F85
:10167000F91FE950FC4F808186FFC9CFE0918602B7
:101680008E2FEE0F990BFC01EE0FFF1FE80FF91FD5
:10169000E950FC4F808160E08F730E94F200B7CF69
:1016A0002091840030918500E09186028E2FEE0F0C
:1016B000990BFC01EE0FFF1FE80FF91FE950FC4FDB
:1016C00081819281820F931F90938900809388007B
:1016D000E09186028E2FEE0F990BFC01EE0FFF1F9B
:1016E000E80FF91FE950FC4F808186FF11C0E0919F
:1016F00086028E2FEE0F990BFC01EE0FFF1FE80FF5
:10170000F91FE950FC4F808161E08F730E94F20065
:10171000FF91EF91DF91CF91BF91AF919F918F9109
:101720007F916F915F914F913F912F910F900FBEDD
:101730000F901F90189580E49CE990938900809306
:1017400088008FEF80938602E3CF1F920F920FB62F
:101750000F9211242F933F934F935F936F937F9337
:101760008F939F93AF93BF93EF93FF93F0E0E0E0ED
:101770000995FF91EF91BF91AF919F918F917F91CB
:101780006F915F914F913F912F910F900FBE0F90EE
:101790001F9018951F920F920FB60F9211242F933E
:1017A0003F934F935F936F937F938F939F93AF93E9
:1017B000BF93EF93FF93E0914303F091440330977D
:1017C00049F0A685B7858585968D91FF14C09C91BB
:1017D0008923A1F4FF91EF91BF91AF919F918F91D8
:1017E0007F916F915F914F913F912F910F900FBE1D
:1017F0000F901F9018959C91892361F7A389B48954
:101800009C918589809589238C93868997890197F6
:10181000F1F7608D718DA685B785558538E020E09C
:10182000CB010197F1F7822F90E095958795282FAE
:101830004C91452309F02068315091F7868D81FD48
:1018400020958091420390E001968F739927309103
:101850004103381799F0A0914203B0E0AA5BBD4F55
:101860002C9380934203828D938D0197F1F7A38986
:10187000B4898C919589892B8C93ACCF868D8160AE
:10188000868FF1CF109251031092500388EE93E0AF
:10189000A0E0B0E08093520390935303A0935403CD
:1018A000B093550326E131E030934F0320934E036C
:1018B00025EC30E030935B0320935A0324EC30E0B6
:1018C00030935D0320935C0320EC30E030935F03A2
:1018D00020935E0321EC30E030936103209360039A
:1018E00022EC30E0309363032093620326EC30E077
:1018F000309365032093640310926703109268038A
:101900001092690310926A031092EE031092ED0395
:101910008093EF039093F003A093F103B093F2034D
:1019200088E291E09093EC038093EB0310926604BD
:10193000109265048CE491E09093640480936304B6
:1019400087E28093670480E180936C0482E0809357
:101950006D0410926E0480911B048C3008F0D5C089
:1019600091E0980F90931B048093600490E0FC0139
:10197000EE0FFF1FE80FF91FE950FC4F88EB9BE0CB
:1019800092838183E4EBF0E0249120935104E5EB12
:10199000F0E0E491E093520480EA90E0FC0134919D
:1019A000E32FF0E0EE0FFF1FE057FF4F45915491FA
:1019B0005093540440935304E1EAF0E0E491F0E0E2
:1019C000EE0FFF1FEA57FF4F459154915093560475
:1019D00040935504FC018491E82FF0E0EE0FFF1FC7
:1019E000E458FF4FA591B491B0935804A0935704C5
:1019F00010925F0489E499E590935A048093590406
:101A0000EC912E2B2C93E0915304F091540490818F
:101A10008091510480958923808310923104109223
:101A2000300488EE93E0A0E0B0E08093320490931D
:101A30003304A0933404B09335048AE391E0909387
:101A40002F0480932E0410924504109244041092A7
:101A500047041092460410924904109248041092D0
:101A60004B0410924A0460914C046E7F6D7F60932A
:101A70004C046695617081E0682783E00E94F20063
:101A800061E083E00E943E01E1EBF0E0E491E0934D
:101A90003E04EDE9F0E0E491F0E0EE0FFF1FE057C7
:101AA000FF4F859194919093400480933F0460E0B0
:101AB00082E00E943E0180914C0481FD04C061E0FF
:101AC00082E00E94F20082E080933A04E0EBF0E0D2
:101AD000E491E0933B04ECE9F0E0E491F0E0EE0FF8
:101AE000FF1FEA57FF4F8591949190933D04809397
:101AF0003C048AE090E090932D0480932C0466E5EA
:101B000071E08CE194E00C9486078FEF8093600481
:101B100039CFCF93DF93CDB7DEB7A8970FB6F89440
:101B2000DEBF0FBECDBF789484B5826084BD84B51E
:101B3000816084BD85B5826085BD85B5816085BDC8
:101B400080916E00816080936E0010928100809180
:101B50008100826080938100809181008160809308
:101B60008100809180008160809380008091B1002D
:101B700084608093B1008091B00081608093B00058
:101B800080917A00846080937A0080917A008260EC
:101B900080937A0080917A00816080937A008091AE
:101BA0007A00806880937A001092C100E0915E0311
:101BB000F0915F0382E08083E0915A03F0915B0330
:101BC0001082E0915C03F0915D038FEC80831092B2
:101BD0006603E0916203F091630386E08083E09105
:101BE0006003F0916103808180618083E0916003F4
:101BF000F0916103808188608083E0916003F091BF
:101C00006103808180688083E0916003F0916103CB
:101C100080818F7D80831092400310923F03109249
:101C20003E0310923D030E944B0386EC91E090939B
:101C30003C0380933B0387EC91E090933A038093BD
:101C400039031092680480916D04823018F098E096
:101C50009093680480936B0462E370E080E090E00E
:101C60000E94940160916E0483E694E00E94100447
:101C700068EE73E080E090E00E94940160E383E608
:101C800094E00E9455060BE416E4C8010197F1F7B1
:101C900060E383E694E00E945506C8010197F1F7DE
:101CA00060E383E694E00E94550683E592E00197A5
:101CB000F1F760E283E694E00E94550660916804C3
:101CC000606240E083E694E00E946E0684E08093C8
:101CD000690440E06CE083E694E00E946E0640E018
:101CE00061E083E694E00E946E060BE31FE1C80109
:101CF0000197F1F782E080936A0440E066E083E6B2
:101D000094E00E946E0640E062E083E694E00E9468
:101D10006E06C8010197F1F7809160048C3008F0DD
:101D200051C061E085E00E943E0180916004282F4F
:101D300030E0F901EE0FFF1FE20FF31FE950FC4FF7
:101D40009081907C9560908310926104109262045F
:101D50002CE0622F0E945612829FB001112430E0C5
:101D600020E0AB01420F531FFA01EE0FFF1FE40FFB
:101D7000F51FE950FC4F908196FD16C02F5F3F4F35
:101D80002C30310571F781110FC01092800082E074
:101D9000809381001092850010928400B19A809106
:101DA0006F00826080936F00E09160048E2F90E05E
:101DB000FC01EE0FFF1FE80FF91FE950FC4F808177
:101DC0008064808388E080936E0460E083E694E022
:101DD0000E94100460EA71E083E694E00E94BC0671
:101DE00081E00E9485066BEA71E083E694E00E9440
:101DF000BC0662EB71E08EE493E00E94CF06109285
:101E0000490410924804109247041092460410921C
:101E10004504109244048DEC90E090934B04809321
:101E20004A0490913A04963108F047C025E530E025
:101E300030934504209344042BEC30E03093470466
:101E40002093460420E930E030934904209348046D
:101E50002091680084E0983048F031E09E3008F42A
:101E600030E081E001C0880F3A95EAF7822B809339
:101E700068002DE630E0983050F02BE630E09E30E0
:101E800030F02CE630E0963110F030E020E0309376
:101E9000420420934104292F30E0983008F020C1FB
:101EA00081E001C0880F9A95EAF7809343048091FE
:101EB0004A0490914B040197F1F780914804909166
:101EC0004904892B49F1E0914303F091440324E054
:101ED000EE32F20709F1309739F0A389B4899C9169
:101EE0008589809589238C9380914C048E7F809383
:101EF0004C0410924203109241038EE294E09093BE
:101F0000440380934303E0914104F09142048081B3
:101F100090914304892B80836BEC71E08EE294E016
:101F20000E94BC0690E080E00E948D008AE0482E6E
:101F3000512C612C712C9BE3C92E9FE1D92E8E016F
:101F40000F5F1F4F20E0222E20E0322E0E94A505B9
:101F5000BC0190E080E029E330E040E050E00E94E6
:101F6000251249015A0185E688169104A104B1049D
:101F700008F0C3C06DEE71E08EE493E00E94CF06DE
:101F80006FE072E08EE493E00E94BC0619A27E012D
:101F9000E1E2EE0EF11CC501B401A30192010E9421
:101FA000251249015A01605DF70162937F01811496
:101FB0009104A104B10479F7309729F0BF018EE4B0
:101FC00093E00E94BC068EE493E00E94CB068EE470
:101FD00093E00E94CB060E94D707882309F48DC0A6
:101FE00040E061E083E694E00E946E06C60101973E
:101FF000F1F780E00E9485066BE172E0C8010E9463
:1020000086076CE174E0C8010E941B07BC0183E6EF
:1020100094E00E94C901C8010E94970781E00E94D4
:1020200085062FB7F89480914A0390914B03A091B5
:102030004C03B0914D032FBF809328049093290443
:10204000A0932A04B0932B0480902404909025043C
:10205000A0902604B0902704BC01CD01681979092D
:102060008A099B091CA21BA21EA21DA218A61FA2C0
:102070002AE0A8010E946111F80101900020E9F70F
:102080003197AF01401B510BB801CE0183960E94DE
:102090004E0760E272E0C8010E948607BE016D5DD6
:1020A0007F4FC8010E941B07BC0183E694E00E9499
:1020B000C901C8010E949707CE0183960E94970725
:1020C00067E272E08EE493E00E94CF060E94A505CD
:1020D0008434964190F48AE590E00E948D00F6CF1A
:1020E0009E3040F42850310981E001C0880F2A95C4
:1020F000EAF7DBCE2E503109F7CF6CE271E080E0D9
:1021000090E00E94940164E372E08EE493E00E9408
:10211000BC068EE493E00E94CB0690E080E00E9433
:102120008D002114310409F411CF0E94810288230B
:1021300009F40CCF0E94000009CF8CE194E00E94CA
:1021400097078AE391E090932F0480932E04809167
:102150004303909144038E52944071F4E091410402
:10216000F09142049081809143048095892380837B
:10217000109244031092430308958F929F92AF925E
:10218000BF92CF92DF92EF92FF92CF93DF93EC0159
:10219000688179818A819B8161157105810591052D
:1021A00021F464E279ED8BE597E02DE133EF41E036
:1021B00050E00E94BC1149015A019B01AC01A7EA01
:1021C000B1E40E94DB116B017C01ACEEB4EFA50120
:1021D00094010E94E911C60ED71EE81EF91EF7FEF3
:1021E00006C081E0C81AD108E10880E8F80AC88270
:1021F000D982EA82FB82C701B6019F77DF91CF9136
:10220000FF90EF90DF90CF90BF90AF909F908F9016
:1022100008958F929F92AF92BF92CF92DF92EF92EA
:10222000FF926091000170910101809102019091F3
:102230000301611571058105910521F464E279EDD1
:102240008BE597E02DE133EF41E050E00E94BC11B7
:1022500049015A019B01AC01A7EAB1E40E94DB11DC
:102260006B017C01ACEEB4EFA50194010E94E91171
:10227000C60ED71EE81EF91EF7FE06C081E0C81A7A
:10228000D108E10880E8F80AC0920001D09201016B
:10229000E0920201F0920301C701B6019F77FF901F
:1022A000EF90DF90CF90BF90AF909F908F90089568
:1022B00060930001709301018093020190930301E8
:1022C0000895BB272A3051F4992342F4BDE290953A
:1022D0008095709561957F4F8F4F9F4F0C94711132
:1022E000BB27FA01A62F6217710581059105330BF3
:1022F00030FB66F0AA27660F771F881F991FAA1F59
:10230000A21710F0A21B63953850A9F7A05DAA335D
:1023100008F0A95DA19336F7B111B1931082CA01FB
:102320000C94AC11BB27FB015527AA27880F991FD6
:10233000AA1FA41710F0A41B83955051B9F7A05DF4
:10234000AA3308F0A95DA193009779F7B111B19371
:102350001192CB010C94AC11DC01FC01672F71913F
:102360007723E1F7329704C07C916D93708362917B
:10237000AE17BF07C8F30895052E97FB1EF400940F
:102380000E94D31157FD07D00E94251207FC03D0ED
:102390004EF40C94D31150954095309521953F4FB4
:1023A0004F4F5F4F089590958095709561957F4F41
:1023B0008F4F9F4F08950E944712A59F900DB49F85
:1023C000900DA49F800D911D11240895B7FF0C94CA
:1023D000DB110E94DB11821B930B08952F923F9219
:1023E0004F925F926F927F928F929F92AF92BF9225
:1023F000CF92DF92EF92FF920F931F93CF93DF93D1
:10240000CDB7DEB7CA1BDB0B0FB6F894DEBF0FBE2D
:10241000CDBF09942A88398848885F846E847D847A
:102420008C849B84AA84B984C884DF80EE80FD807C
:102430000C811B81AA81B981CE0FD11D0FB6F894F2
:10244000DEBF0FBECDBFED010895A1E21A2EAA1B7B
:10245000BB1BFD010DC0AA1FBB1FEE1FFF1FA21754
:10246000B307E407F50720F0A21BB30BE40BF50B51
:10247000661F771F881F991F1A9469F760957095DA
:10248000809590959B01AC01BD01CF010895A29F5D
:10249000B001B39FC001A39F700D811D1124911D38
:1024A000B29F700D811D1124911D0895991B79E033
:1024B00004C0991F961708F0961B881F7A95C9F7D4
:1024C00080950895EE0FFF1F0590F491E02D09947B
:1024D0000F931F93CF93DF938230910510F482E026
:1024E00090E0E0917104F091720430E020E0B0E0FF
:1024F000A0E0309799F42115310509F44AC0281B52
:10250000390B24303105D8F58A819B81611571051D
:1025100089F1FB0193838283FE0111C040815181C7
:102520000281138148175907E0F04817590799F4B9
:10253000109761F012960C93129713961C93329693
:10254000CF01DF91CF911F910F91089500937104F6
:1025500010937204F4CF2115310551F0421753073F
:1025600038F0A901DB019A01BD01DF01F801C1CFFB
:10257000EF01F9CF9093720480937104CDCFFE01E7
:10258000E20FF31F819391932250310939832883FD
:10259000D7CF20916F0430917004232B41F4209108
:1025A0000601309107013093700420936F0420914D
:1025B0000401309105012115310541F42DB73EB7D5
:1025C0004091080150910901241B350BE0916F04E3
:1025D000F0917004E217F307A0F42E1B3F0B2817AD
:1025E000390778F0AC014E5F5F4F2417350748F08C
:1025F0004E0F5F1F5093700440936F04819391932B
:102600009FCFF0E0E0E09CCFCF93DF930097E9F01D
:10261000FC01329713821282A0917104B09172046E
:10262000ED0130E020E01097A1F420813181820F8C
:10263000931F20916F04309170042817390709F017
:1026400061C0F0937004E0936F04DF91CF9108951F
:10265000EA01CE17DF07E8F54A815B819E0141154B
:102660005105B1F7E901FB83EA8349915991C40F00
:10267000D51FEC17FD0761F4808191810296840FCC
:10268000951FE90199838883828193819B838A8343
:10269000F0E0E0E012968D919C9113970097B9F5C8
:1026A0002D913C911197CD010296820F931F20919D
:1026B0006F04309170042817390739F6309751F5B7
:1026C0001092720410927104B0937004A0936F047E
:1026D000BCCFD383C28340815181840F951FC8171B
:1026E000D90761F44E5F5F4F88819981480F591F68
:1026F000518340838A819B81938382832115310595
:1027000009F0B0CFF0937204E09371049ECFFD0105
:10271000DC01C0CF13821282D7CFB0E0A0E0E3E9A2
:10272000F3E10C94F0118C01009751F4CB010E945D
:1027300068128C01C801CDB7DEB7E0E10C940C1231
:10274000FC01E60FF71F9C0122503109E217F30745
:1027500008F49DC0D901CD91DC911197C617D70718
:1027600098F0C530D10530F3CE010497861797074E
:1027700008F3C61BD70B2297C193D1936D937C931B
:10278000CF010E940413D6CF5B01AC1ABD0A4C01E5
:102790008C0E9D1EA0917104B0917204512C412C9D
:1027A000F12CE12C109731F580916F049091700419
:1027B0008815990509F05CC04616570608F058C000
:1027C0008091040190910501009741F48DB79EB767
:1027D0004091080150910901841B950BE817F907F6
:1027E00008F055C0F0937004E0936F04F901718311
:1027F0006083A0CF8D919C91119712966C90129747
:1028000013967C901397A815B90559F56C0142E011
:10281000C40ED11CCA14DB0420F1AC014A195B09B7
:10282000DA011296159780F0628273825183408399
:10283000D9016D937C93E114F10471F0D7011396E3
:10284000FC93EE93129776CF22968C0F9D1FF90181
:1028500091838083F301EFCFF0937204E0937104CE
:1028600069CF4816590608F42C017D01D3019ACF8F
:10287000CB010E9468127C01009749F0AE01B801BB
:102880000E944A14C8010E940413870153CF10E02C
:1028900000E050CFFB01DC0102C001900D924150DD
:1028A0005040D8F70895FB01DC0101900D92002003
:1028B000E1F7089510E0C2E6D0E004C0FE010E94F6
:1028C00062122196C336D107C9F7F894FFCF0100F1
:1028D0000000000073048000000040001400540059
:1028E00000000000B702D7010402040375021302BE
:1028F000670200000000E103B403A2058A03AD03F0
:102900009A038B03000000000F05D701A2058A037C
:102910006B058105F70400000000B606D701A2058B
:10292000C8010D0A0052656164696E672063616DBC
:102930006572612076616C756573005265747265AD
:102940006976696E67204C6963656E736520706C8B
:1029500061746500464F554E443A2000494E564139
:102960004C4944204C454E475448203A2000455895
:10297000495420544F4C4C210041637469766500E2
:102980004578697420746F6C6C2073657269616C32
:10299000206C6F67733A200A00544849532049530A
:1029A00020412053494D554C415445442043414D0D
:1029B0004552412028455849542900457869746991
:1029C0006E672043617220686173206265656E20C6
:1029D0006465746563746564203E3E2000446973D9
:1029E00074616E6365203D20004E6F3A20005449AB
:1029F0004D453A20004F50454E494E4720474154DF
:102A00004500434C4F53494E472047415445000031
:107E0000112484B714BE81FFF0D085E080938100F7
:107E100082E08093C00088E18093C10086E0809377
:107E2000C20080E18093C4008EE0C9D0259A86E02C
:107E300020E33CEF91E0309385002093840096BBD3
:107E4000B09BFECF1D9AA8958150A9F7CC24DD24C4
:107E500088248394B5E0AB2EA1E19A2EF3E0BF2EE7
:107E6000A2D0813461F49FD0082FAFD0023811F036
:107E7000013811F484E001C083E08DD089C08234E0
:107E800011F484E103C0853419F485E0A6D080C0E4
:107E9000853579F488D0E82EFF2485D0082F10E0AE
:107EA000102F00270E291F29000F111F8ED06801E7
:107EB0006FC0863521F484E090D080E0DECF843638
:107EC00009F040C070D06FD0082F6DD080E0C81688
:107ED00080E7D80618F4F601B7BEE895C0E0D1E017
:107EE00062D089930C17E1F7F0E0CF16F0E7DF06D8
:107EF00018F0F601B7BEE89568D007B600FCFDCFD4
:107F0000A601A0E0B1E02C9130E011968C91119780
:107F100090E0982F8827822B932B1296FA010C0160
:107F200087BEE89511244E5F5F4FF1E0A038BF0790
:107F300051F7F601A7BEE89507B600FCFDCF97BE46
:107F4000E89526C08437B1F42ED02DD0F82E2BD052
:107F50003CD0F601EF2C8F010F5F1F4F84911BD097
:107F6000EA94F801C1F70894C11CD11CFA94CF0C13
:107F7000D11C0EC0853739F428D08EE10CD085E9AC
:107F80000AD08FE07ACF813511F488E018D01DD067
:107F900080E101D065CF982F8091C00085FFFCCF94
:107FA0009093C60008958091C00087FFFCCF809118
:107FB000C00084FD01C0A8958091C6000895E0E648
:107FC000F0E098E1908380830895EDDF803219F02E
:107FD00088E0F5DFFFCF84E1DECF1F93182FE3DFCA
:107FE0001150E9F7F2DF1F91089580E0E8DFEE27F6
:047FF000FF270994CA
:027FFE00040479
:00000001FF
