:100000000C9463000C948B000C948B000C9464147F
:100010000C9464140C9464140C948B000C943F1492
:100020000C948B000C948B000C948B000C94831319
:100030000C948B000C948B000C948B000C948B0014
:100040000C94C2110C948B000C9432120C940C1270
:100050000C948B000C948B000C948B000C948B00F4
:100060000C9464120C948B00000000080002010044
:100070000003040700000000000000000000000072
:10008000240027002A000000000023002600290089
:1000900000000000250028002B00040404040404D0
:1000A0000404020202020202030303030303010227
:1000B00004081020408001020408102001020408F6
:1000C0001020DC14621911241FBECFEFD8E0DEBF70
:1000D000CDBF12E0A0E0B1E0E6E7FAE302C0059090
:1000E0000D92A83AB107D9F727E0A8EAB2E001C01B
:1000F0001D92AB34B207E1F710E0C2E6D0E004C0D5
:100100002197FE010E94361BC136D107C9F70E9414
:100110006C160C942E1D0C9400008F929F92AF923F
:10012000BF92FF920F931F93CF93DF93F090380706
:100130002BE02F1508F44CC020913A0708E512E097
:10014000021B110927FD1395000F111F000F111F2E
:1001500020913907C8E8D0E0C21BD10927FDD3950B
:10016000CC0FDD1FCC0FDD1F4E010D2E000CAA0899
:10017000BB089801012E000C440B550B28193909B6
:100180004A095B09DC010E94BA1A24EB30E040E026
:1001900050E00E94901A820E931EA41EB51E8C166B
:1001A0009D062CF0E801801691060CF4E4012297DC
:1001B000CC0FDD1F2FB7F8948F2D90E0FC01EE0FD0
:1001C000FF1FE80FF91FE255F94FD283C1832FBFFC
:1001D000DF91CF911F910F91FF90BF90AF909F90B3
:1001E0008F90089590E0FC01E859FF4F2491FC01A5
:1001F000E255FF4F3491FC01E656FF4FE491EE23A8
:10020000C9F0222339F0233001F1A8F4213019F18B
:10021000223029F1F0E0EE0FFF1FE057FF4FA591CC
:10022000B4918FB7F894EC91611126C030953E23BC
:100230003C938FBF08952730A9F02830C9F02430AF
:1002400049F7809180008F7D03C0809180008F7777
:1002500080938000DFCF84B58F7784BDDBCF84B5FA
:100260008F7DFBCF8091B0008F778093B000D2CF8D
:100270008091B0008F7DF9CF3E2BDACFCF93DF9303
:1002800090E0FC01E255FF4F249186569F4FFC0100
:1002900084918823D1F090E0880F991FFC01E458E5
:1002A000FF4FA591B491FC01E057FF4FC591D49148
:1002B00061110EC09FB7F8948C91E22FE0958E23C8
:1002C0008C932881E223E8839FBFDF91CF9108952B
:1002D0008FB7F894EC91E22BEC938FBFF6CF3FB73A
:1002E000F8948091B6039091B703A091B803B091B0
:1002F000B90326B5A89B05C02F3F19F00196A11D93
:10030000B11D3FBFBA2FA92F982F8827BC01CD015F
:10031000620F711D811D911D42E0660F771F881FBE
:10032000991F4A95D1F708958F929F92AF92BF92ED
:10033000CF92DF92EF92FF924B015C010E946F011E
:100340006B017C010E946F016C197D098E099F0968
:10035000683E734081059105A8F321E0821A910857
:10036000A108B10888EEC80E83E0D81EE11CF11C7C
:1003700081149104A104B10429F7FF90EF90DF905C
:10038000CF90BF90AF909F908F9008952FB7F89423
:100390006091B2037091B3038091B4039091B5035F
:1003A0002FBF089508950895DB0114964D915C9137
:1003B00015976D917C91DC01ED91FC910280F381A8
:1003C000E02D0994AF92BF92CF92DF92EF92FF920D
:1003D0000F931F93CF93DF936C017B018B01040F6D
:1003E000151FEB015E01AE18BF08C017D10759F009
:1003F0006991D601ED91FC910190F081E02DC6014B
:100400000995892B79F7C501DF91CF911F910F9144
:10041000FF90EF90DF90CF90BF90AF900895FC01D8
:10042000538D448D252F30E0842F90E0821B930B59
:10043000541710F0CF96089501970895FC01918DFF
:10044000828D981761F0A28DAE0FBF2FB11D5D9602
:100450008C91928D9F5F9F73928F90E008958FEFA4
:100460009FEF0895FC01918D828D981731F0828D58
:10047000E80FF11D858D90E008958FEF9FEF0895AF
:10048000FC01918D228D892F90E0805C9F4F821B13
:1004900091098F73992708958AEB95E00E94400295
:1004A00021E0892B09F420E0822F089580E090E07C
:1004B000892B29F00E944C0281110C9400000895B0
:1004C000FC01A48DA80FB92FB11DA35ABF4F2C91C9
:1004D000848D90E001968F739927848FA689B789C0
:1004E0002C93A089B1898C91837080648C93938DB7
:1004F000848D981306C00288F389E02D80818F7D5A
:1005000080830895EF92FF920F931F93CF93DF9311
:10051000EC0181E0888F9B8D8C8D98131AC0E8893F
:10052000F989808185FF15C09FB7F894EE89FF890E
:100530006083E889F98980818370806480839FBFAC
:1005400081E090E0DF91CF911F910F91FF90EF90AC
:100550000895F62E0B8D10E00F5F1F4F0F731127BC
:10056000E02E8C8D8E110CC00FB607FCFACFE889F7
:10057000F989808185FFF5CFCE010E946002F1CF1D
:10058000EB8DEC0FFD2FF11DE35AFF4FF0829FB76B
:10059000F8940B8FEA89FB8980818062CFCFCF935B
:1005A000DF93EC01888D8823B9F0AA89BB89E8899B
:1005B000F9898C9185FD03C0808186FD0DC00FB641
:1005C00007FCF7CF8C9185FFF2CF808185FFEDCFBF
:1005D000CE010E946002E9CFDF91CF910895209172
:1005E0009F03211109C021E020939F0330915706FA
:1005F000209158063CBD2DBD60E0FC0184810C9427
:10060000F20061E0FC0184810E94F20080919F036E
:10061000811110929F0308958EBD00000DB407FE56
:10062000FDCF8EB508958FEF0C940C030F931F939D
:10063000CF93DF93EC010E94C6018B010E9413034C
:100640008F3F69F00E94C601601B710B6C177D071C
:10065000A8F380E0DF91CF911F910F91089581E081
:10066000F9CFCF92DF92EF92FF920F931F93CF9328
:10067000DF93EC01162F69017A018E81882389F0BE
:100680008F8198859C012F5F3F4F38872F83823061
:10069000924018F40E941303F3CFCE010E9401038D
:1006A0001E82CE010E94EF028CE291E00E941603AE
:1006B000812F80640E940C0308E110E0D701C6017D
:1006C000002E04C0B695A795979587950A94D2F702
:1006D0000E940C0308501109083F8FEF180771F7AB
:1006E0008FEF0E940C0310E00E9413038A8787FF9C
:1006F00004C01F3F11F01F5FF7CFDF91CF911F9113
:100700000F91FF90EF90DF90CF900895AF92BF923E
:10071000CF92DF92EF92FF920F931F93CF93DF93CD
:10072000EC016901C801820F931F8130924050F59E
:100730008E81882379F088819981AA81BB81841771
:100740009507A607B70731F48F819885C816D90693
:1007500008F042C0488359836A837B838B8583304A
:1007600039F089E0440F551F661F771F8A95D1F72E
:100770009A01AB0161E1CE010E943103882389F027
:1007800083E08D83CE010E94010380E0DF91CF9151
:100790001F910F91FF90EF90DF90CF90BF90AF909F
:1007A00008950E94C6015B010E9413038A878F3F50
:1007B00069F40E94C6016A197B096D327140A0F389
:1007C0008FE08D83CE010E940103DCCF8E3F89F440
:1007D00018861F8281E08E838F8198858C159D05F8
:1007E00050F40E9413038F819885019698878F8318
:1007F000F3CF8DE0E6CF6701E00EF11E0E941303F8
:10080000F60181936F01EE15FF05C1F78F81988581
:10081000080F191F18870F838985882319F0011580
:100820001240A0F08E81882389F08F8198859C01E9
:100830002F5F3F4F38872F838230924018F40E94F9
:100840001303F3CFCE010E9401031E8281E09ECFED
:10085000CF92DF92EF92FF920F93CF93DF93EC0151
:10086000690182E1411551056105710599F08B859A
:10087000833039F089E0440F551F661F771F8A9532
:10088000D1F79A01AB0168E1CE010E9431038823C0
:1008900019F084E08D832DC08EEF0E940C03760149
:1008A0008EEFD81AF70181917F010E940C03EC149E
:1008B000FD04C1F78FEF0E940C038FEF0E940C0321
:1008C0000E9413038A878F71853071F4011116C05D
:1008D000CE010E94010381E0DF91CF910F91FF9043
:1008E000EF90DF90CF90089581E18D83CE010E943B
:1008F0000103CE010E94010380E0EECF88E592E083
:100900000E941603811102C085E1C4CF20E030E0CF
:10091000A9016DE0CE010E943103882311F084E12A
:10092000B9CF0E9413038111FACFD2CF0F93409118
:10093000A1035091A2036091A3037091A4034115F8
:1009400051056105710589F0082F2AEB33E090E02D
:1009500080E00E942804882349F01092A10310929D
:10096000A2031092A3031092A40381E00F910895B3
:100970000F93CF93C82F8091A003811105C0C1E0D0
:100980008C2FCF910F91089540910001509101015A
:1009900060910201709103010C2F2AEB33E090E08B
:1009A00080E00E942804811102C0C0E0E9CFCC237E
:1009B00031F381E00E9496048823B9F31092A003DA
:1009C000DFCF8F929F92AF92BF92EF92FF920F93E1
:1009D0001F93CF934B015C01C42F80910001909134
:1009E0000101A0910201B091030188159905AA05A2
:1009F000BB0541F181E00E94B80481110BC080E089
:100A0000CF911F910F91FF90EF90BF90AF909F906B
:100A10008F9008958AEBE82E83E0F82E00E012E034
:100A200030E020E0B501A40190E080E00E94860360
:100A3000882329F38092000190920101A092020183
:100A4000B09203014091A0034C2B4093A00381E09E
:100A5000D7CF4F925F926F927F928F929F92AF9279
:100A6000BF92CF92DF92EF92FF920F931F93CF939B
:100A7000DF93EC01423051056105710590F480E08F
:100A8000DF91CF911F910F91FF90EF90DF90CF906A
:100A9000BF90AF909F908F907F906F905F904F909E
:100AA000089589859A85AB85BC850196A11DB11DE8
:100AB00084179507A607B70710F3CB88DC88ED8865
:100AC000FE888F89803109F042C0BB27A72F962F5F
:100AD000852F480159012A013B01C80ED91EEA1E83
:100AE000FB1E8091000190910101A0910201B09143
:100AF0000301C816D906EA06FB0699F58F898031ED
:100B0000C1F5B301A201552766277727440F551F6A
:100B100046545C4FFA01918280828091A0038160EB
:100B20008093A0038A89823080F08D819E81AF817D
:100B3000B8858C0D9D1DAE1DBF1D8093A1039093A4
:100B4000A203A093A303B093A40381E099CFDB0198
:100B5000CA01E7E0B695A79597958795EA95D1F7ED
:100B6000B8CF40E0C701B6010E94E1048111C6CFB1
:100B700086CFB301A2014F77552766277727440F09
:100B8000551F440F551F46545C4FFA0180829182D5
:100B9000A282B382C2CF8F929F92AF92BF92CF9226
:100BA000DF92EF92FF920F931F93CF93DF93FC019D
:100BB00081859285A385B4850196A11DB11D8417F9
:100BC0009507A607B70770F480E0DF91CF911F91DA
:100BD0000F91FF90EF90DF90CF90BF90AF909F90DC
:100BE0008F90089583889488A588B68887898031F6
:100BF00089F5BB27A72F962F852FE9016A017B0175
:100C00008F01BC01CD01680D791D8A1D9B1D80904F
:100C1000000190900101A0900201B090030186169E
:100C20009706A806B90601F5F8018789803111F504
:100C3000DD24EE24FF24F601EE0FFF1FE654FC4FE7
:100C400080819181B0E0A0E088839983AA83BB83EF
:100C500081E0BBCFDB01CA01C7E0B695A7959795A8
:100C60008795CA95D1F7C9CF40E00E94E104811170
:100C7000DBCFAACFE894C7F8DD24EE24FF24F601E9
:100C8000EE0FFF1FEE0FFF1FE654FC4F8081918196
:100C9000A281B381BF70D8CF2F923F924F925F92C3
:100CA0006F927F928F929F92AF92BF92CF92DF927C
:100CB000EF92FF920F931F93CF93DF93EC014B01C1
:100CC0008D81811115C08FEF9FEFDF91CF911F9123
:100CD0000F91FF90EF90DF90CF90BF90AF909F90DB
:100CE0008F907F906F905F904F903F902F900895DE
:100CF0008C8180FFE8CF4B895C896D897E898A85EC
:100D00009B85AC85BD85412C481759076A077B0731
:100D100011F044244394512C52011E0126E0220E6E
:100D2000311CA114B10409F4B1C04A855B856C85FE
:100D30007D856A0181E0D8228B8D9C8D8A019B0183
:100D4000E9E03695279517950795EA95D1F7ED8156
:100D5000E230E1F5FC01628D738D848D958D600F1D
:100D6000711F821F931F612C22E0722E6C187D0868
:100D7000A614B70408F435012C8126FD04C06114C3
:100D8000F2E07F0671F400910001109101012091C1
:100D9000020130910301061717072807390709F0E8
:100DA00053C040E00E94E104882309F48CCFC601BF
:100DB00086549C4FD4019C01260D371DFC012E1733
:100DC0003F0709F45EC041914D93F9CFFC01748057
:100DD0007A947022C114D10471F471100CC0452BA7
:100DE000462B472B39F58F89988DA98DBA8D8E8327
:100DF0009F83A887B987EB8DFC8D6E817F81888565
:100E000099856250710981099109258504C0660F91
:100E1000771F881F991F2A95D2F706851785208985
:100E20003189600F711F821F931F670D711D811D16
:100E3000911D99CF4E815F816885798591010E94CE
:100E4000CB058111D8CF3FCF740183019601AB014F
:100E5000BC0190E080E00E948603882309F433CF30
:100E6000860C971C8A859B85AC85BD85860D971D54
:100E7000A11DB11D8A879B87AC87BD87A618B708BF
:100E800050CF281B390B820E931EECCFC2011DCF11
:100E90008F929F92AF92BF92CF92DF92EF92FF928A
:100EA0000F931F93CF93DF93EC018D8181110EC0BF
:100EB00080E0DF91CF911F910F91FF90EF90DF9035
:100EC000CF90BF90AF909F908F9008950B891C8911
:100ED0002D893E89041715072607370748F34A016D
:100EE0005B01823031F48A869B86AC86BD8681E0C8
:100EF000E0CF81149104A104B10449F41E821F8241
:100F0000188619861A861B861C861D86F0CF0A85D0
:100F10001B852C853D85EB8DFC8D858590E00996A4
:100F2000B901A8014150510961097109082E04C095
:100F300076956795579547950A94D2F775016401A0
:100F4000E1E0CE1AD108E108F10804C0F694E79474
:100F5000D794C7948A95D2F7C416D506E606F70645
:100F600020F0012B022B032B11F58F89988DA98D71
:100F7000BA8D8E839F83A887B9878E010A5F1F4F22
:100F8000C114D104E104F10409F4ADCF4E815F81B5
:100F90006885798598018B8D9C8D0E94CB0591E0A9
:100FA000C91AD108E108F1088111EACF81CFC41A2A
:100FB000D50AE60AF70AE1CF3F924F925F926F920D
:100FC0007F928F929F92AF92BF92CF92DF92EF92D9
:100FD000FF920F931F93CF93DF93CDB7DEB72C977C
:100FE0000FB6F894DEBF0FBECDBF5C01DC015B968F
:100FF0008D909C905C9716964D905D906D907C9036
:101000001997411451046104710409F468C0BFEFD9
:101010004B1A5B0A6B0A7B0A312CF401818592859D
:10102000A385B4859C01AD012F5F3F4F4F4F5F4FAC
:1010300029873A874B875C87730162011D821E8274
:101040001F821886F40181859285A385B4852D8140
:101050003E814F815885281739074A075B0708F0FA
:1010600056C089859A85AB85BC858C159D05AE05D6
:10107000BF0550F482E0C82ED12CE12CF12C92E077
:10108000492E512C612C712C9E012F5F3F4FB701CF
:10109000A601C4010E94CB058823C9F189819A81E8
:1010A000AB81BC81892B8A2B8B2B09F1260137015F
:1010B0009FEF491A590A690A790A2D813E814F81A9
:1010C00058852F5F3F4F4F4F5F4F2D833E834F8398
:1010D00058873FEFC31AD30AE30AF30AB3CFF401E8
:1010E00040805180628073803324339496CFC4143F
:1010F000D504E604F70409F70FEF1FEF2FEF3FE0E9
:10110000B701A601C4010E942905811119C080E020
:101110002C960FB6F894DEBF0FBECDBFDF91CF91F6
:101120001F910F91FF90EF90DF90CF90BF90AF9005
:101130009F908F907F906F905F904F903F90089519
:10114000D50116964D915D916D917C911997411540
:1011500051056105710539F097018601C4010E94AE
:1011600029058823A1F2D5011696CD92DD92ED9244
:10117000FC921997332051F0D701C6010196A11DA9
:10118000B11DF40180839183A283B383F501878924
:10119000908DA18DB28D892B8A2B8B2B39F4848174
:1011A000C78AD08EE18EF28E80688483F5018481B7
:1011B0008062848381E0ACCF1F93CF93DF93FC01E7
:1011C00025812223D1F1162FEC01848187FF2AC0CB
:1011D000668577858089918941E00E94E1048823B2
:1011E00061F1EA8980E2E89FF0011124E654FC4FA6
:1011F000309719F18D81823040F48B899C89AD89BB
:10120000BE89848F958FA68FB78F8F89988D938F86
:10121000828F8F89988DA98DBA8DB58BA48B8C8187
:101220008F778C83111103C08C818F7E8C83812FEB
:10123000DF91CF911F910C94B80480E0DF91CF91A2
:101240001F9108951F93CF93DF93EC018D8181301F
:1012500031F090E080E0DF91CF911F9108958C8173
:1012600081FFF7CF82FD18C090E080E00E94EF027E
:101270000E941303182F90E080E00E9401031F3F9B
:1012800041F78C8185FF1BC060E0CE010E94DC0825
:101290008C818F7D8C83DDCF4B895C896D897E89C4
:1012A0008A859B85AC85BD8584179507A607B707FA
:1012B000D9F2CE010E9448078111D6CFCACF409102
:1012C000A1035091A2036091A3037091A403452B45
:1012D000462B472B21F080E00E949604BACF806114
:1012E0008C832A853B85317080E092E0821B930BD2
:1012F000B2CF2F923F924F925F926F927F928F92D6
:101300009F92AF92BF92CF92DF92EF92FF920F9394
:101310001F93CF93DF9300D000D01F92CDB7DEB7DD
:101320007C015B01342E5D83DC0115968C91159751
:10133000813009F0CCC014962C9021FEC8C022FC4C
:10134000B2C0C32CDD8022947FE027222094B22DEE
:10135000B1702B2ED7011A964D915D916D917C91B4
:101360001D97C114D10409F426C15B968D919C91FF
:101370005C97FC0174807A948A019B0169E0369540
:101380002795179507956A95D1F770228A011170F4
:10139000711020C001151105E9F416964D915D916B
:1013A0006D917C911997411551056105710509F001
:1013B00097C057968D919D910D90BC91A02D00974F
:1013C000A105B10509F0AEC0C7010E94DC07882362
:1013D00009F47DC080E092E0801B910B46018C15E2
:1013E0009D0508F44C01D7015B964D915C915C978B
:1013F00016968D919D910D90BC91A02D0297A109FB
:10140000B109FA01258504C0880F991FAA1FBB1FC7
:101410002A95D2F74685578560897189840F951F73
:10142000A61FB71F9C01AD01270D311D411D511D88
:1014300029013A01811432E0930609F079C08091C4
:10144000000190910101A0910201B0910301841566
:101450009505A605B70559F48FEF9FEFDC01809342
:10146000000190930101A0930201B0930301022DAA
:101470009501B301A20190E080E00E942804882336
:1014800031F19EEFB91AC818D908F7018285938502
:10149000A485B585880D991DA11DB11D82879387EF
:1014A000A487B58757CFF701438954896589768921
:1014B00082859385A485B585481759076A077B07F8
:1014C00009F43FCFC7010E94480781113ACF81E05C
:1014D00090E0D70113969C938E93129780E007C0FB
:1014E0009E012F5F3F4F0E94CB05811102C090E00B
:1014F00079C089819A81AB81BC81F701238D348DBC
:10150000F901278948EF5FEF60E070E0203121F0BA
:1015100048EF5FEF6FEF7FE084179507A607B707E7
:1015200008F052CFF70186839783A087B18752CF07
:101530000115110599F5D7011A964D915D916D919F
:101540007C911D9753968D919D910D90BC91A02DEE
:10155000481759076A077B0708F181E00E94B80421
:10156000882309F4B4CF40920001509201016092A7
:101570000201709203018091A00381608093A00317
:10158000C80186549C4FD5019C01280D391DFC01D2
:101590002E173F0759F04D914193FACF41E0C30117
:1015A000B2010E94E1048111EBCF91CF281B390BCE
:1015B000A20EB31E68CFF70183899489A589B689E5
:1015C00084179507A607B70738F48481438B548B9B
:1015D000658B768B80688483F701848183FD1AC0D4
:1015E000832D9D810F900F900F900F900F90DF91A2
:1015F000CF911F910F91FF90EF90DF90CF90BF9010
:10160000AF909F908F907F906F905F904F903F90A2
:101610002F90089561E0C7010E94DC08882309F437
:1016200056CFDECFCF93DF931F92CDB7DEB769835E
:1016300041E050E0BE016F5F7F4F0E9479090F903B
:10164000DF91CF910895FC01818D928D009719F063
:1016500061E00C94DC080895DC015996ED91FC9151
:101660003097B9F083899489A589B68942855385D5
:1016700064857585841B950BA60BB70B811520E837
:101680009207A105B10538F08FEF9FE7A0E0B0E029
:10169000089590E080E00895CF93DF931F92CDB737
:1016A000DEB7FC01818D928D009769F0BE016F5FFE
:1016B0007F4F0E944C06019731F4898190E00F9092
:1016C000DF91CF9108958FEF9FEFF9CFEF92FF92C7
:1016D0000F931F93CF93DF931F92CDB7DEB7FC011B
:1016E000818D928D10E000E00097D1F07F01BE0166
:1016F0006F5F7F4F0E944C060FEF1FEF019781F441
:10170000098110E0F701818D928DFC01428553859E
:101710006485758541505109610971090E94480726
:10172000C8010F90DF91CF911F910F91FF90EF9023
:101730000895DC0159968D919C91009739F0DC0158
:10174000ED91FC910480F581E02D099490E080E01A
:101750000895CF93DF93EC01E98DFA8D309749F42A
:1017600081E090E09B838A8390E080E0DF91CF91DD
:10177000089513821282898D9A8D0E947909E98DCC
:10178000FA8D22813381232B59F7F0CFCF93DF934A
:101790001F92CDB7DEB76983DC01ED91FC91028029
:1017A000F381E02D41E050E0BE016F5F7F4F09956E
:1017B0000F90DF91CF91089520915503260F332785
:1017C000331F21323105ECF420917903FC0190E0C4
:1017D00080E0243069F082E00895A09155032191C2
:1017E000AC014B5C5C4FA40FB52FB11D2C9301963F
:1017F000861798F380915503680F6093550380E036
:10180000089581E008951092790381E080937B032D
:1018100010927A0361E082E10E94F20061E083E1CC
:101820000E94F200E9EBF0E080818E7F808380816E
:101830008D7F808388E48093B80085E48093BC002A
:101840000895CF93DF9391E0909334038823B9F008
:10185000C091B800D091BA008091BC008A7B80937F
:10186000BC0060E082E10E94F20060E083E10E943F
:10187000F2000E94030CD093BA00C093B800DF912D
:10188000CF9108950895E091AC038091AB03E817E0
:1018900030F4F0E0E15FFC4F808190E008958FEF3D
:1018A0009FEF08959091AC038091AB032FEF3FEF32
:1018B000981748F4E92FF0E0E15FFC4F208130E019
:1018C0009F5F9093AC03C90108958091AB03909101
:1018D000AC03891B990B0895CF92DF92EF92FF9290
:1018E0000F931F93CF93DF937C01CB018A0120914B
:1018F0000E03222389F0EB016B01C40ED51ECC151B
:10190000DD0569F06991D701ED91FC910190F081BD
:10191000E02DC7010995F3CF642F0E94DC0BC801AD
:10192000DF91CF911F910F91FF90EF90DF90CF90BB
:101930000895CF93DF931F92CDB7DEB769832091CF
:101940000E032223F9F02091A903203258F021E060
:1019500030E0FC013383228390E080E00F90DF9140
:10196000CF9108958091AA03E82FF0E0E251FD4F56
:10197000998190838F5F8093AA038093A90381E06C
:1019800090E0ECCF61E0CE0101960E94DC0BF7CF36
:10199000CF92DF92EF92FF920F931F93CF93DF933B
:1019A000FC01C48121E020930E03C093ED0210924C
:1019B000AA031092A9038385682B82EA96E00E940D
:1019C000990CD091A903D13208F092C00E946F0106
:1019D0006B017C0180917903811165C082E0809365
:1019E000790381E080937B038FEF809378031092DB
:1019F0009D03D0939C03AEEEB2E0ECE7F3E080E011
:101A0000D81385C010929E0380919E03CC0FC82BE3
:101A1000C0939E0380917A03813009F07CC01092BC
:101A20007A030E946F016B017C0180919E03809379
:101A3000BB008091300390913103A0913203B091AB
:101A40003303892B8A2B8B2B99F00E946F01009115
:101A500030031091310320913203309133036C191C
:101A60007D098E099F090617170728073907E0F136
:101A70008091BC0083FDD9CF85EC8093BC000E948F
:101A80006F016B017C0180917903823009F445C0BC
:101A9000809178038F3F61F180917803803241F12A
:101AA0008091780325C08091300390913103A091FB
:101AB0003203B0913303892B8A2B8B2B09F48ACF05
:101AC0000E946F0100913003109131032091320385
:101AD000309133036C197D098E099F09061717078A
:101AE0002807390708F076CF80912F030E94210C38
:101AF0001092AA031092A90310920E03DF91CF91C6
:101B00001F910F91FF90EF90DF90CF9008959D91DE
:101B100091938F5F75CF85EEB0CF80913003909118
:101B20003103A0913203B0913303892B8A2B8B2B85
:101B300009F4A9CF0E946F01009130031091310385
:101B400020913203309133036C197D098E099F096E
:101B5000061717072807390708F095CFC5CF08954E
:101B60002091AF033091B0032817390771F4909199
:101B7000AD038091AE03981741F0E091AD03F0E022
:101B8000E455FD4F808190E008958FEF9FEF089519
:101B9000EF92FF920F931F93CF93DF93DC015C963C
:101BA000ED90FC905D97E114F10479F481E090E010
:101BB00013969C938E93129790E080E0DF91CF91E3
:101BC0001F910F91FF90EF9008955196ED91FC9128
:101BD000529750968C915097982F90950FB75E968C
:101BE0002C915E97122F127021FD6095F894208140
:101BF000112319F1282B2083E7012197F1F728E021
:101C0000462F50E0308160FF1AC0382B3083E70147
:101C10002197F1F7BA0175956795215089F711233E
:101C200081F08081892380830FBF5C968D919C9188
:101C30000197F1F781E090E0C1CF2923DCCF392370
:101C4000E5CF9081892BEFCF2091AF033091B00386
:101C50002817390761F48091AE032091AD0390E01D
:101C6000805C9F4F821B91098F739927089590E0A4
:101C700080E008952091AF033091B0032817390711
:101C8000B9F49091AD038091AE03981789F0E0917B
:101C9000AD03F0E0E455FD4F80812091AD0330E0CD
:101CA0002F5F3F4F2F7333272093AD0390E00895AC
:101CB0008FEF9FEF089590E080E008950F931F93BA
:101CC000E0912F07F0913007808190912907892BAF
:101CD0008083E0912B07F0912C0780819091290758
:101CE000892B80838BE290E00197F1F7E0912B073D
:101CF000F0912C079081809129078095892380831A
:101D000080913707882351F0E0912F07F091300739
:101D1000908180912907809589238083E0912D0708
:101D2000F0912E07808190912A07892329F090E075
:101D300080E01F910F9108950E946F01AB01BC01DB
:101D40008091310790913207B0E0A0E08855994E1C
:101D5000AF4FBF4F840F951FA61FB71F8093330748
:101D600090933407A0933507B0933607E0912D0781
:101D7000F0912E07808190912A07892381F40E9497
:101D80006F0100913307109134072091350730918E
:101D90003607061717072807390740F7C8CF0E94EC
:101DA0006F012091310730913207620F731F811D3F
:101DB000911D609333077093340780933507909398
:101DC0003607E0912D07F0912E07808190912A0728
:101DD000892381F00E946F0100913307109134072D
:101DE000209135073091360706171707280739075E
:101DF00040F79DCF0E946F0120913107309132074B
:101E0000A901455051092091330730913407FA0157
:101E1000E21BF30BCF01860F971F8BCF0F931F93FE
:101E2000CF938C01C62F0E94C80C6C2F6460C80130
:101E30000E94C80C6C2F6B7FC8010E94C80C83ECF9
:101E400090E00197F1F7CF911F910F9108950F93B3
:101E50001F93CF93DF938C01D62FC42F607F642B09
:101E60000E940E0F80E1D89FB00111246C2BC80195
:101E7000DF91CF911F910F910C940E0FCF93DF93B1
:101E8000CDB7DEB728970FB6F894DEBF0FBECDBF33
:101E900098E0EEE0F1E0DE01119601900D929A9546
:101EA000E1F790914307981708F48FEF90E0880FBF
:101EB000991F21E030E02C0F3D1F820F931FFC0182
:101EC0006081606840E08BE397E028960FB6F89455
:101ED000DEBF0FBECDBFDF91CF910C94270F40E046
:101EE00061E08BE397E00E94270F8BE39FE101976E
:101EF000F1F7089541E00E94270F81E090E00895F6
:101F0000FB0101900020E9F73197AF01461B570B09
:101F1000DC01ED91FC910280F381E02D099466E7EC
:101F200071E00C94800F0F931F93CF93DF93EC011C
:101F30000E94800F8C01CE010E948F0F800F911F95
:101F4000DF91CF911F910F9108950F931F93CF931E
:101F5000DF93EC0188819981009759F02A813B81B8
:101F60002617370730F081E0DF91CF911F910F9155
:101F700008958B016F5F7F4F0E94611C009759F09D
:101F8000998388831B830A832C813D81232B59F7F6
:101F9000FC011082E8CF80E0E7CFCF93DF93EC0124
:101FA00088819981009711F00E94D81B19821882AC
:101FB0001D821C821B821A82DF91CF910895EF92BD
:101FC000FF920F931F93CF93DF93EC01FB01E0800F
:101FD000F180E114F10411F104811581011511055D
:101FE000A9F08C819D81080F191FB801CE010E94B4
:101FF000A50F882399F0288139818C819D81B701B3
:10200000820F931F0E94271D1D830C83CE01DF9139
:10201000CF911F910F91FF90EF900895CE010E94F4
:10202000CD0FF4CFEF92FF920F931F93CF93DF93D7
:10203000EC017B018A01BA010E94A50F81110BC03E
:10204000CE010E94CD0FCE01DF91CF911F910F9154
:10205000FF90EF9008951D830C83B70188819981CB
:102060000E94271DF0CFFB0101900020E9F7319776
:10207000AF01461B570B0C941210FC011182108209
:102080001382128215821482FB0101900020E9F76D
:102090003197AF01461B570B0C941210FC01808145
:1020A0009181009711F00C94D81B089585ED8093D1
:1020B000BC008091300390913103A0913203B09124
:1020C00033030796A11DB11D23E0B695A7959795FB
:1020D00087952A95D1F72091BC0024FD03C010926A
:1020E0007903089540913003509131036091320398
:1020F00070913303452B462B472B69F30097A105BD
:10210000B10541F02AE22A95F1F700C00197A10933
:10211000B109E1CF80912F030C94210CEF92FF9233
:102120000F931F93CF93DF93CDB7DEB7E4970FB62E
:10213000F894DEBF0FBECDBF69E771E08AEB95E092
:102140000E94930F6FE871E086E097E00E94930F82
:102150006CE271E080E090E00E94940186E097E0FC
:102160000E948F0F0E94D2191CA21BA21EA21DA2A8
:1021700018A61FA223E833E040E050E00E94901A26
:102180006C597F4F8F4F9F4F2AE0AE014F5F5F4FDB
:102190000E94351ABE016F5F7F4FCE0183960E9469
:1021A00033106FEA71E0CE0101960E943D10BE012E
:1021B0006D5D7F4FCE0101960E94DF0F8C01FC0107
:1021C000E480F580FFEFEF1AFF0AB7010E94A50F28
:1021D000882309F4CEC0F801208131818481958162
:1021E00063EB71E0820F931F0E94271DF801F582B7
:1021F000E48218AA1FA61AAA19AA1CAA1BAA7E0161
:10220000FFE2EF0EF11C0E151F0559F0F801608179
:1022100071816115710529F044815581C7010E94C2
:102220001210CE0101960E944E10CE0183960E949C
:102230004E101AA619A61CA61BA61EA61DA66FA5A3
:1022400078A96115710531F04BA95CA9CE01899679
:102250000E9412108DA59EA511E08730910571F1A5
:102260001CA21BA21EA21DA218A61FA24AE0BE010C
:102270006F5F7F4F0E94661ABE016F5F7F4FCE0176
:1022800083960E94331065EB71E0CE0101960E94A7
:102290003D10BE016D5D7F4FCE0101960E94DF0FA4
:1022A000BC0186E097E00E94D401CE0101960E9415
:1022B0004E10CE0183960E944E1010E0CE018996FA
:1022C0000E944E10111117C0B7018AEB95E00E94D1
:1022D000D40167EC71E086E097E00E94800F86E011
:1022E00097E00E948F0F6CE271E080E090E00E9426
:1022F00094010E948E106FA578A961157105E9F10E
:102300004BA95CA983ED96E00E9412100E94D2199D
:1023100029E030E040E050E00E94901A6F5F7F4F6C
:102320008F4F9F4F7093DA066093D9060E94C601C3
:102330006093DB067093DC068093DD069093DE06E7
:102340001092DF061092E0061092E1061092E2066B
:10235000C7010E944E1081E0E4960FB6F894DEBFEC
:102360000FBECDBFDF91CF911F910F91FF90EF90E6
:102370000895C8010E94CD0F3CCF83ED96E00E94E6
:10238000CD0FC4CF1F920F920FB60F9211242F932F
:102390003F938F939F93AF93BF938091B20390919C
:1023A000B303A091B403B091B5033091B10323E01E
:1023B000230F2D3758F50196A11DB11D2093B103B0
:1023C0008093B2039093B303A093B403B093B50387
:1023D0008091B6039091B703A091B803B091B9036F
:1023E0000196A11DB11D8093B6039093B703A093EE
:1023F000B803B093B903BF91AF919F918F913F9173
:102400002F910F900FBE0F901F90189526E8230F65
:102410000296A11DB11DD2CF1F920F920FB60F923F
:1024200011242F933F934F935F936F937F938F93D9
:102430009F93AF93BF93EF93FF938AEB95E00E9436
:102440006002FF91EF91BF91AF919F918F917F912A
:102450006F915F914F913F912F910F900FBE0F9011
:102460001F9018951F920F920FB60F9211242F9361
:102470008F939F93EF93FF93E091CA05F091CB0563
:102480008081E091D005F091D10582FD1BC0908143
:102490008091D3058F5F8F732091D405821741F00F
:1024A000E091D305F0E0E654FA4F958F8093D30581
:1024B000FF91EF919F918F912F910F900FBE0F90F1
:1024C0001F9018958081F4CF1F920F920FB60F9234
:1024D00011242F933F934F935F936F937F938F9329
:1024E0009F93AF93BF93EF93FF938091B900887F41
:1024F000803609F44AC0F0F5883209F4A7C018F50F
:10250000803109F49BC0B8F4882309F4F9C08830FD
:1025100009F494C0FF91EF91BF91AF919F918F917A
:102520007F916F915F914F913F912F910F900FBECF
:102530000F901F901895883109F488C0803251F7A8
:102540008093780314C0803409F49DC040F4803334
:10255000B9F38833F9F68093780385ECB0C0803501
:1025600009F485C0883509F496C0883499F60E942C
:102570005610D0CF883909F48CC038F5883729F047
:1025800050F4883611F0803729F683E08093790380
:102590001092770357C0883809F47BC0803919F04E
:1025A000803809F0B7CF80917703803208F071C08E
:1025B000E091770381E08E0F809377038091BB00D9
:1025C000F0E0E95AFC4F80833DC0803B39F0E0F4F5
:1025D000803A09F479C0883A09F09CCF84E080936E
:1025E00079031092560310925503E091A703F091DE
:1025F000A80309958091550381110FC081E0809354
:1026000055031092350309C0803C09F4A6CF883CDD
:1026100009F4A3CF883B09F07DCFE091560381E018
:102620008E0F80935603F0E0EB5CFC4F808180932B
:10263000BB00909156038091550329C080919E0361
:102640008093BB0085EC8093BC0064CF90919D0388
:1026500080919C03981758F5E0919D0381E08E0FBF
:1026600080939D03F0E0E458FC4F8081E9CFE09136
:102670009D0381E08E0F80939D038091BB00F0E06D
:10268000E458FC4F808390919D0380919C039817A0
:10269000C8F285E8D8CFE0919D0381E08E0F80934A
:1026A0009D038091BB00F0E0E458FC4F8083809153
:1026B0007B0381115CCF81E080937A0384EA80936D
:1026C000BC001092790326CF85EC8093BC00109259
:1026D000790380917703803230F4E0917703F0E062
:1026E000E95AFC4F10826091770370E0E091A503F6
:1026F000F091A60387E593E00995109277030ACF3E
:102700001092780334CF1F920F920FB60F921124BC
:102710002F933F934F935F936F937F938F939F93E9
:10272000AF93BF93CF93DF93EF93FF938091EC022E
:10273000C091D206D0E087FF24C01092850010928D
:1027400084008091EC028F5F8093EC028091EC0218
:10275000082E000C990B8C179D0724F48091EC0235
:102760008C30C4F18091840090918500049680346F
:102770009C4908F47AC08091840090918500049669
:1027800076C08091EC02082E000C990B8C179D07E7
:10279000C4F6E091EC028E2FEE0F990BFC01EE0FC8
:1027A000FF1FE80FF91FE255F94F808186FFC9CF5F
:1027B000E091EC028E2FEE0F990BFC01EE0FFF1F44
:1027C000E80FF91FE255F94F808160E08F730E9496
:1027D000F200B7CF2091840030918500E091EC02A7
:1027E0008E2FEE0F990BFC01EE0FFF1FE80FF91F64
:1027F000E255F94F81819281820F931F9093890056
:1028000080938800E091EC028E2FEE0F990BFC0173
:10281000EE0FFF1FE80FF91FE255F94F808186FF89
:1028200011C0E091EC028E2FEE0F990BFC01EE0F20
:10283000FF1FE80FF91FE255F94F808161E08F73A8
:102840000E94F200FF91EF91DF91CF91BF91AF9184
:102850009F918F917F916F915F914F913F912F91B8
:102860000F900FBE0F901F90189580E49CE99093F5
:102870008900809388008FEF8093EC02E3CF1F9252
:102880000F920FB60F9211242F933F934F935F93A4
:102890006F937F938F939F93AF93BF93EF93FF9328
:1028A000F0E0E0E00995FF91EF91BF91AF919F912A
:1028B0008F917F916F915F914F913F912F910F90E9
:1028C0000FBE0F901F9018951F920F920FB60F9288
:1028D00011242F933F934F935F936F937F938F9325
:1028E0009F93AF93BF93EF93FF93E091AF03F0916A
:1028F000B003309749F0A685B7858585968D91FF01
:1029000014C09C918923A1F4FF91EF91BF91AF91E5
:102910009F918F917F916F915F914F913F912F91F7
:102920000F900FBE0F901F9018959C91892361F70F
:10293000A389B4899C918589809589238C93868904
:1029400097890197F1F7608D718DA685B7855585BB
:1029500038E020E0CB010197F1F7822F90E09595C8
:102960008795282F4C91452309F02068315091F725
:10297000868D81FD20958091AE0390E001968F7346
:1029800099273091AD03381799F0A091AE03B0E0CC
:10299000A455BD4F2C938093AE03828D938D0197E8
:1029A000F1F7A389B4898C919589892B8C93ACCF4D
:1029B000868D8160868FF1CF1092BD051092BC0587
:1029C00088EE93E0A0E0B0E08093BE059093BF0551
:1029D000A093C005B093C1052AE131E03093BB0557
:1029E0002093BA0525EC30E03093C7052093C60547
:1029F00024EC30E03093C9052093C80520EC30E08A
:102A00003093CB052093CA0521EC30E03093CD05FF
:102A10002093CC0522EC30E03093CF052093CE05F7
:102A200026EC30E03093D1052093D0051092D305E9
:102A30001092D4051092D5051092D60520E520936A
:102A400057061092580610925E0610925F0610927A
:102A500062061092640642E050E060E070E040934D
:102A60006506509366066093670670936806109239
:102A70007C0610928606109285062CE231E0309397
:102A8000840620938306109288061092A506109261
:102A9000A4068093A6069093A706A093A806B093D9
:102AA000A90688E391E09093A3068093A206109272
:102AB0003E0710923D078EE691E090933C0780938D
:102AC0003B0787E280933F0780E18093440782E0E1
:102AD00080934507109246078091D2068C3008F00B
:102AE000F7C091E0980F9093D2068093380790E05A
:102AF000FC01EE0FFF1FE80FF91FE255F94F88EBBD
:102B00009BE092838183E4EBF0E0249120932907FA
:102B1000E5EBF0E0E491E0932A0780EA90E0FC0125
:102B20003491E32FF0E0EE0FFF1FE057FF4F459188
:102B3000549150932C0740932B07E1EAF0E0E49185
:102B4000F0E0EE0FFF1FEA57FF4F4591549150936D
:102B50002E0740932D07FC018491E82FF0E0EE0F43
:102B6000FF1FE458FF4FA591B491B0933007A09395
:102B70002F071092370789E499E5909332078093E5
:102B80003107EC912E2B2C93E0912B07F0912C0721
:102B9000908180912907809589238083109209076D
:102BA0001092080788EE93E0A0E0B0E080930A0757
:102BB00090930B07A0930C07B0930D078CE591E061
:102BC000909307078093060710921D0710921C0729
:102BD00010921F0710921E071092210710922007D3
:102BE0001092230710922207609124076E7F6D7F59
:102BF000609324076695617081E0682783E00E94F6
:102C0000F20061E083E00E943E01E1EBF0E0E4913C
:102C1000E0931607EDE9F0E0E491F0E0EE0FFF1F1E
:102C2000E057FF4F85919491909318078093170771
:102C300060E082E00E943E018091240781FD04C093
:102C400061E082E00E94F20082E080931207E0EBF4
:102C5000F0E0E491E0931307ECE9F0E0E491F0E0B8
:102C6000EE0FFF1FEA57FF4F859194919093150740
:102C7000809314071092EE061092ED0688EE93E012
:102C8000A0E0B0E08093EF069093F006A093F106E9
:102C9000B093F2068AE491E09093EC068093EB0601
:102CA00010920507109204071092F70668E771E08A
:102CB00085EE96E00E943D108AE090E09093E40655
:102CC0008093E30668E771E083ED96E00C943D1095
:102CD0008FEF8093380717CFCF93DF93CDB7DEB751
:102CE000A7970FB6F894DEBF0FBECDBF789484B51A
:102CF000826084BD84B5816084BD85B5826085BDF8
:102D000085B5816085BD80916E00816080936E0085
:102D10001092810080918100826080938100809177
:102D20008100816080938100809180008160809328
:102D300080008091B10084608093B1008091B000E8
:102D400081608093B00080917A00846080937A00E3
:102D500080917A00826080937A0080917A0081600D
:102D600080937A0080917A00806880937A00109234
:102D7000C100E091CA05F091CB0582E08083E0912B
:102D8000C605F091C7051082E091C805F091C9050C
:102D90008FEC80831092D205E091CE05F091CF05A3
:102DA00086E08083E091CC05F091CD058081806143
:102DB0008083E091CC05F091CD058081886080838F
:102DC000E091CC05F091CD05808180688083E09111
:102DD000CC05F091CD0580818F7D808368EE71E018
:102DE0008AEB95E00E94930F1092AC031092AB0314
:102DF0001092AA031092A9030E94030C82ED91E0A5
:102E00009093A8038093A70383ED91E09093A6038A
:102E10008093A5031092400780914507823018F0F7
:102E200098E0909340078093430762E370E080E06E
:102E300090E00E949401609146078BE397E00E9426
:102E4000C80C68EE73E080E090E00E94940160E3BB
:102E50008BE397E00E940E0F0BE416E4C801019784
:102E6000F1F760E38BE397E00E940E0FC801019732
:102E7000F1F760E38BE397E00E940E0F83E592E0A9
:102E80000197F1F760E28BE397E00E940E0F6091EB
:102E90004007606240E08BE397E00E94270F84E0E8
:102EA0008093410740E06CE08BE397E00E94270F9E
:102EB0000E946F0F82E08093420740E066E08BE360
:102EC00097E00E94270F40E062E08BE397E00E94CA
:102ED000270F8BE39FE10197F1F7809138078C3042
:102EE00008F051C061E085E00E943E018091380702
:102EF000282F30E0F901EE0FFF1FE20FF31FE2551C
:102F0000F94F9081907C95609083109239071092D0
:102F10003A072CE0622F0E942A1B829FB0011124E5
:102F200030E020E0AB01420F531FFA01EE0FFF1F0C
:102F3000E40FF51FE255F94F908196FD16C02F5F03
:102F40003F4F2C30310571F781110FC01092800076
:102F500082E0809381001092850010928400B19AE3
:102F600080916F00826080936F00E09138078E2F10
:102F700090E0FC01EE0FFF1FE80FF91FE255F94F3B
:102F800080818064808388E08093460760E08BE3E3
:102F900097E00E94C80C60E072E08BE397E00E942B
:102FA000800F81E00E943E0F69E072E08BE397E0C2
:102FB0000E94800F6DE172E08AEB95E00E94930F12
:102FC000109221071092200710921F0710921E07DF
:102FD00010921D0710921C078DEC90E09093230730
:102FE0008093220790911207963108F047C025E59B
:102FF00030E030931D0720931C072BEC30E030931A
:103000001F0720931E0720E930E03093210720930B
:1030100020072091680084E0983048F031E09E302D
:1030200008F430E081E001C0880F3A95EAF7822B7E
:10303000809368002DE630E0983050F02BE630E0C9
:103040009E3030F02CE630E0963110F030E020E099
:1030500030931A0720931907292F30E0983008F091
:10306000F9C081E001C0880F9A95EAF780931B07A9
:1030700080912207909123070197F1F78091200713
:1030800090912107892B49F1E091AF03F091B003B2
:1030900027E0E630F20709F1309739F0A389B489C7
:1030A0009C918589809589238C93809124078E7FBC
:1030B000809324071092AE031092AD0386E097E050
:1030C0009093B0038093AF03E0911907F0911A0732
:1030D000808190911B07892B808367E372E086E0F3
:1030E00097E00E94800F90E080E00E948D0089E3CD
:1030F000882E912CA12CB12C9AE0492E512C612CB8
:10310000712C20E0222E20E0322E0E945E0EBC01A7
:1031100090E080E0A50194010E94F91A69017A010A
:1031200085E6C816D104E104F10408F0A0C062E508
:1031300072E08AEB95E00E94930F6CE672E08AEBF6
:1031400095E00E94800F19A28E010F5D1F4FC701ED
:10315000B601A30192010E94F91A69017A01605D2A
:10316000F80162938F01C114D104E104F10479F7ED
:10317000309729F0BF018AEB95E00E94800F8AEB1F
:1031800095E00E948F0F8AEB95E00E948F0F0E94BE
:103190008E10882309F46BC00E946F0F80E00E949C
:1031A0003E0F68E772E0CE0101960E943D1063ED8C
:1031B00076E0CE0101960E94DF0FBC018BE397E021
:1031C0000E94D401CE0101960E944E1081E00E941F
:1031D0003E0F8091D9069091DA061BA21AA21DA279
:1031E0001CA21FA21EA24AE0BE016F5F7F4F0E9479
:1031F0002A1ABE016F5F7F4FCE0182960E94331064
:103200006DE772E0CE0101960E943D10BE016E5D39
:103210007F4FCE0101960E94DF0FBC018BE397E048
:103220000E94D401CE0101960E944E10CE018296DA
:103230000E944E1064E872E08AEB95E00E94930FC2
:103240000E945E0E8434964190F48AE590E00E94DC
:103250008D00F6CF9E3040F42850310981E001C046
:10326000880F2A95EAF702CF2E503109F7CF6CE28A
:1032700071E080E090E00E94940161E972E08AEBE5
:1032800095E00E94800F0E946F0F80E00E943E0F29
:103290006EE972E08BE397E00E94800F8AEB95E085
:1032A0000E948F0F90E080E00E948D002114310475
:1032B00009F42BCF0E944C02882309F426CF0E94E8
:1032C000000023CF83ED96E00E944E1085EE96E03D
:1032D0000E944E108CE591E09093070780930607BB
:1032E0008091AF039091B0038650974071F4E091C4
:1032F0001907F0911A07908180911B078095892307
:1033000080831092B0031092AF0308958F929F9222
:10331000AF92BF92CF92DF92EF92FF92CF93DF9363
:10332000EC01688179818A819B8161157105810534
:10333000910521F464E279ED8BE597E02DE133EF1F
:1033400041E050E00E94901A49015A019B01AC01F2
:10335000A7EAB1E40E94AF1A6B017C01ACEEB4EFB6
:10336000A50194010E94BD1AC60ED71EE81EF91EC3
:10337000F7FE06C081E0C81AD108E10880E8F80A23
:10338000C882D982EA82FB82C701B6019F77DF91AA
:10339000CF91FF90EF90DF90CF90BF90AF909F9034
:1033A0008F9008958F929F92AF92BF92CF92DF92AB
:1033B000EF92FF92609104017091050180910601E6
:1033C00090910701611571058105910521F464E271
:1033D00079ED8BE597E02DE133EF41E050E00E947D
:1033E000901A49015A019B01AC01A7EAB1E40E947D
:1033F000AF1A6B017C01ACEEB4EFA50194010E9401
:10340000BD1AC60ED71EE81EF91EF7FE06C081E0E3
:10341000C81AD108E10880E8F80AC0920401D092E5
:103420000501E0920601F0920701C701B6019F77FE
:10343000FF90EF90DF90CF90BF90AF909F908F90D4
:1034400008956093040170930501809306019093A1
:1034500007010895BB274A3031F4992322F4BDE2D5
:10346000909581959F4F0C94671ABB272A3051F491
:10347000992342F4BDE290958095709561957F4FB8
:103480008F4F9F4F0C94451ABB27FA01A62F621746
:10349000710581059105330B30FB66F0AA27660F95
:1034A000771F881F991FAA1FA21710F0A21B6395F0
:1034B0003850A9F7A05DAA3308F0A95DA19336F7AB
:1034C000B111B1931082CA010C94801ABB27FB0181
:1034D0005527AA27880F991FAA1FA41710F0A41B0D
:1034E00083955051B9F7A05DAA3308F0A95DA19367
:1034F000009779F7B111B1931192CB010C94801A16
:10350000DC01FC01672F71917723E1F7329704C04A
:103510007C916D9370836291AE17BF07C8F30895D5
:10352000052E97FB1EF400940E94A71A57FD07D0A2
:103530000E94F91A07FC03D04EF40C94A71A509578
:103540004095309521953F4F4F4F5F4F089590958F
:103550008095709561957F4F8F4F9F4F08950E9482
:103560001B1BA59F900DB49F900DA49F800D911DD6
:1035700011240895B7FF0C94AF1A0E94AF1A821B52
:10358000930B08952F923F924F925F926F927F928A
:103590008F929F92AF92BF92CF92DF92EF92FF9263
:1035A0000F931F93CF93DF93CDB7DEB7CA1BDB0B0F
:1035B0000FB6F894DEBF0FBECDBF09942A883988B4
:1035C00048885F846E847D848C849B84AA84B984BB
:1035D000C884DF80EE80FD800C811B81AA81B981C7
:1035E000CE0FD11D0FB6F894DEBF0FBECDBFED01DB
:1035F0000895A1E21A2EAA1BBB1BFD010DC0AA1F34
:10360000BB1FEE1FFF1FA217B307E407F50720F04B
:10361000A21BB30BE40BF50B661F771F881F991FC6
:103620001A9469F760957095809590959B01AC010F
:10363000BD01CF010895A29FB001B39FC001A39F18
:10364000700D811D1124911DB29F700D811D1124DB
:10365000911D0895991B79E004C0991F961708F0F1
:10366000961B881F7A95C9F780950895EE0FFF1F66
:103670000590F491E02D09940F931F93CF93DF935E
:103680008230910510F482E090E0E0914907F091DA
:103690004A0730E020E0B0E0A0E0309799F421152F
:1036A000310509F44AC0281B390B24303105D8F5FF
:1036B0008A819B816115710589F1FB019383828366
:1036C000FE0111C0408151810281138148175907C1
:1036D000E0F04817590799F4109761F012960C938F
:1036E000129713961C933296CF01DF91CF911F91C1
:1036F0000F9108950093490710934A07F4CF2115BD
:10370000310551F04217530738F0A901DB019A0146
:10371000BD01DF01F801C1CFEF01F9CF90934A0756
:1037200080934907CDCFFE01E20FF31F8193919360
:103730002250310939832883D7CF20914707309110
:103740004807232B41F420910A0130910B0130935B
:10375000480720934707209108013091090121155E
:10376000310541F42DB73EB740910C0150910D0148
:10377000241B350BE0914707F0914807E217F30748
:10378000A0F42E1B3F0B2817390778F0AC014E5FD1
:103790005F4F2417350748F04E0F5F1F50934807BF
:1037A00040934707819391939FCFF0E0E0E09CCF57
:1037B000CF93DF930097E9F0FC01329713821282D6
:1037C000A0914907B0914A07ED0130E020E0109741
:1037D000A1F420813181820F931F209147073091FE
:1037E00048072817390709F061C0F0934807E093AC
:1037F0004707DF91CF910895EA01CE17DF07E8F57B
:103800004A815B819E0141155105B1F7E901FB83B6
:10381000EA8349915991C40FD51FEC17FD0761F454
:10382000808191810296840F951FE9019983888395
:10383000828193819B838A83F0E0E0E012968D91F0
:103840009C9113970097B9F52D913C911197CD015B
:103850000296820F931F209147073091480728173F
:10386000390739F6309751F510924A0710924907F7
:10387000B0934807A0934707BCCFD383C28340814E
:103880005181840F951FC817D90761F44E5F5F4FB0
:1038900088819981480F591F518340838A819B8178
:1038A000938382832115310509F0B0CFF0934A0745
:1038B000E09349079ECFFD01DC01C0CF1382128245
:1038C000D7CFB0E0A0E0E7E6FCE10C94C41A8C018D
:1038D000009751F4CB010E943C1B8C01C801CDB76D
:1038E000DEB7E0E10C94E01AFC01E60FF71F9C0143
:1038F00022503109E217F30708F49DC0D901CD9198
:10390000DC911197C617D70798F0C530D10530F371
:10391000CE0104978617970708F3C61BD70B22978B
:10392000C193D1936D937C93CF010E94D81BD6CFC6
:103930005B01AC1ABD0A4C018C0E9D1EA09149077B
:10394000B0914A07512C412CF12CE12C109731F504
:1039500080914707909148078815990509F05CC048
:103960004616570608F058C0809108019091090149
:10397000009741F48DB79EB740910C0150910D0115
:10398000841B950BE817F90708F055C0F09348071A
:10399000E0934707F90171836083A0CF8D919C91DB
:1039A000119712966C90129713967C901397A81506
:1039B000B90559F56C0142E0C40ED11CCA14DB04F0
:1039C00020F1AC014A195B09DA011296159780F0D3
:1039D0006282738251834083D9016D937C93E11499
:1039E000F10471F0D7011396FC93EE93129776CF02
:1039F00022968C0F9D1FF90191838083F301EFCFF5
:103A0000F0934A07E093490769CF4816590608F42E
:103A10002C017D01D3019ACFCB010E943C1B7C017C
:103A2000009749F0AE01B8010E941E1DC8010E9416
:103A3000D81B870153CF10E000E050CFFB01DC0121
:103A400002C001900D9241505040D8F70895FB01FB
:103A5000DC0101900D920020E1F7089510E0C2E62C
:103A6000D0E004C0FE010E94361B2196C336D10768
:063A7000C9F7F894FFCF36
:103A7600FFFFFFFF0100000000004B078000000071
:103A8600400014005400000000008202E2010F0210
:103A9600CF0240021E02320200000000120BE201B9
:103AA6002209AF0D00000000990C6C0C5B0E420C55
:103AB600650C520C430C00000000C60BA90B990BB9
:103AC600230B2C0B4C0B660B00000000C80DE2010B
:103AD6005B0E420C240E3A0EB00D000000007A0F69
:103AE600E2015B0EAF0D0D0A0052656164696E67F7
:103AF6002063616D6572612076616C756573004740
:103B0600656E65726174696E672072616E646F6D51
:103B1600204C6963656E736520706C617465005531
:103B26004145004200494E56414C4944204C454EC1
:103B3600475448203A2000494E56414C4944204CAF
:103B46004943454E5345202121202009092054523E
:103B56005920414741494E00534420696E697469B2
:103B6600616C697A6174696F6E20646F6E652E0090
:103B760057454C434F4D4521005761697420666F88
:103B86007220616C6C6F636174696F6E00456E7450
:103B9600727920746F6C6C2073657269616C206C2D
:103BA6006F67733A200A005448495320495320410D
:103BB6002053494D554C415445442043414D4552AF
:103BC600410043617220686173206265656E2064FE
:103BD60065746563746564203E3E200044697374B1
:103BE600616E6365203D20004E6F3A2000534C4FB6
:103BF600543A20004F50454E494E472047415445C0
:103C060000434C4F53494E472047415445005354B7
:083C1600414E44204259000018
:00000001FF
